S01700004763634170706C69636174696F6E312E737265635B
S11300000C9434000C9451000C9451000C94510045
S11300100C9451000C9451000C9451000C94510018
S11300200C9451000C9451000C9451000C94510008
S11300300C9451000C9451000C940F020C94510038
S11300400C9451000C9451000C94E9030C94380462
S11300500C9451000C9451000C9451000C945100D8
S11300600C9451000C94510011241FBECFEFD8E022
S1130070DEBFCDBF11E0A0E0B1E0E6EAFFE002C0E0
S113008005900D92A031B107D9F725E0A0E1B1E0C8
S113009001C01D92A230B207E1F70E945B000C94EC
S11300A0D1070C9400000E9489000E9401020E9462
S11300B09B03789408950E94530020E233E044E6C1
S11300C050E064E670E080E293E00E94D90082E0B0
S11300D091E00E94DC038091E70387701F928F9365
S11300E08BE091E09F938F9387EF92E09F938F93A0
S11300F00E94E70487EF92E00E94DC038EE091E027
S11301000E94DC030F900F900F900F900F900F90B0
S1130110D4CF87B18C6087B90895CF92DF92EF92E4
S1130120FF920F931F936B017C0180E090E0A0E0AD
S1130130B0E440E050E0BA018A019B01080F191FA6
S11301402A1F3B1FC016D106E206F30630F0C01A80
S1130150D10AE20AF30A21E001C020E0769567950E
S113016057954795222321F0480F591F6A1F7B1F7B
S1130170B695A79597958795B695A79597958795DD
S11301800097A105B105C1F64C155D056E057F0507
S113019038F4CB01BA016F5F7F4F8F4F9F4F02C07E
S11301A0CB01BA011F910F91FF90EF90DF90CF9098
S11301B008952F923F926F927F928F929F92AF9267
S11301C0BF92CF92DF92EF92FF920F931F93CF9340
S11301D0DF93CDB7DEB728970FB6F894DEBF0FBE16
S11301E0CDBF8C011B013A0199234CF4E7EEF3E0F7
S11301F080818860808311950195110905C0E7EE1F
S1130200F3E08081877F808301301105C9F4E7EE34
S1130210F3E08FEF9FEF928781878081887F8260F0
S1130220808388EE93E092838183809110018160C2
S1130230809310018AE087BD85B5826085BDCAC000
S11302400115110509F4C6C06901E12CF12C6AEF0E
S11302507DEF85E090E0A70196010E94A604490184
S11302605A013093EF032093EE03C101A0E0B0E004
S113027089839A83AB83BC8360E47FE583E795E25B
S113028029813A814B815C810E94A604CA01B9018B
S11302900E948D009B01AC01ADE4B3E00E94C50453
S11302A024E630E040E050E00E9484043E832D8345
S11302B03093E9032093E803A7019601C701B6012F
S11302C00E9474046B017C01A4E7B2E029813A81A5
S11302D04B815C810E94C50424E630E040E050E09C
S11302E00E94A604C701B6010E94A60438872F8382
S11302F0D901AB2B21F481E090E098878F836301CF
S1130300E12CF12CD801A70196010E94D00491019F
S1130310260D371D40E050E00E94A604211531054A
S113032011F421E030E0AF81B885A217B30738F0AB
S1130330201B310B3093ED032093EC0317C0AF81E6
S1130340B88529813A814B815C810E94C5049095CE
S11303508095709561957F4F8F4F9F4FA7019601B0
S11303600E94A6043093ED032093EC038091EC03E8
S11303709091ED03892B31F48FEF9FEF9093ED0370
S11303808093EC03E7EEF3E085819681080F191F53
S1130390148303838D819E818816990638F0928296
S11303A081828081887F8360808306C0E7EEF3E0EA
S11303B08081887F816080831092F1031092F00322
S11303C0809110018160809310018AE087BD85B51A
S11303D0826085BD28960FB6F894DEBF0FBECDBFF0
S11303E0DF91CF911F910F91FF90EF90DF90CF900D
S11303F0BF90AF909F908F907F906F903F902F9081
S11304000895E7EEF3E08081887F808384B582607D
S113041084BDEEE6F0E080818260808308951F92BF
S11304200F920FB60F921124EF92FF920F931F9326
S11304302F933F934F935F936F937F938F939F93E8
S1130440AF93BF93CF93DF93EF93FF93E7EEF3E084
S1130450418147BD48B1508153FB882780F990E022
S1130460880F991F880F991F880F991F842B88B9AB
S1130470808187708130C9F038F0823009F4A2C0DD
S1130480833009F47BC0E1C010921601109215016B
S1130490109214011092130185B5887F85BD809157
S11304A010018E7F80931001D0C098B184E0892719
S11304B088B900911501109116010F5F1F4F109319
S11304C01601009315010F2EF7EEEF2EF3E0FF2E29
S11304D0F02DF701218532852F5F3F4F3287218729
S11304E0C181D281CE01A0E0B0E0880F991FAA1F7C
S11304F0BB1F4091130150911401BC01CD01640F45
S1130500751F811D911D220F331F220F331F2F5F73
S11305103F4F032E000C440B550B0E94A604FE0112
S1130520E21BF30B9F017093140160931301F70115
S1130530838194810817190748F0858196819287F1
S113054081878081887F826080837FC04091EE03B1
S11305505091EF034217530708F477C03093120108
S1130560209311011092140110921301E7EEF3E0AD
S11305708081887F836080839A0167C098B184E01A
S1130580892788B98091150190911601019690935D
S1130590160180931501E7EEF3E02781308543814E
S11305A054818417950708F450C0858196819287F9
S11305B0818720911101309112018081887F8260AE
S11305C0808343C098B184E0892788B9809115015C
S11305D09091160101969093160180931501E7EE10
S11305E0F3E0C185D2852196D287C187018112812A
S11305F0C801A0E0B0E0880F991FAA1FBB1F20917B
S1130600130130911401BC01CD01620F731F811DD0
S1130610911D9E01220F331F220F331F2F5F3F4F67
S1130620032E000C440B550B0E94A604F801E21B98
S1130630F30B9F017093140160931301DD232CF0DD
S1130640E7EEF3E08081887F80833093E903209391
S1130650E803FF91EF91DF91CF91BF91AF919F910B
S11306608F917F916F915F914F913F912F911F9146
S11306700F91FF90EF900F900FBE0F901F90189561
S11306803FB7F89421E009C0FC01E05CFF4F108201
S1130690319610823196108220E02111F5CF3FBFB0
S11306A008958E5B9F4FFC01908181E0903409F0A6
S11306B080E008958E5B9F4FFC01908181E0911151
S11306C080E00895FB01E05CFF4F9081FB01E90F9E
S11306D0F11D80839FB7F89481E00CC0FB01E05CBE
S11306E0FF4F80818F5F8F738083329680818F5F0D
S11306F0808380E08111F2CF9FBF08959C01FC01AB
S1130700EF5BFF4F8081F901E80FF11D80814FB746
S1130710F89491E00CC0F901EF5BFF4F90819F5F6B
S11307209F739083319690819150908390E09111C2
S1130730F2CF4FBF08958AB18D7F8AB98BB18260A1
S11307408BB980910001909101018D5B9F4F0E94B4
S1130750400380910001909101010E944003109296
S1130760C50083E38093C400E1ECF0E080818869F4
S11307708083E2ECF0E08081866080837894089541
S1130780CF93C82F80910001909101018D5B9F4F01
S11307900E9451038111F6CF609100017091010113
S11307A06D5B7F4F8C2F0E946203E1ECF0E080814F
S11307B080628083CF910895CF93DF93EC0103C0CF
S11307C021960E94C00388818111FACFDF91CF91D5
S11307D008951F920F920FB60F9211242F933F93F7
S11307E04F935F936F937F938F939F93AF93BF9335
S11307F0CF93EF93FF93C091C60080910001909135
S113080001010E945103811114C060910001709193
S113081001018C2F0E946203E0910001F09101011B
S11308208091C0008C7190E0EA57FF4F91838083E0
S11308300DC0E0910001F09101018091C0008C7124
S1130840816090E0EA57FF4F91838083FF91EF919D
S1130850CF91BF91AF919F918F917F916F915F9154
S11308604F913F912F910F900FBE0F901F901895AD
S11308701F920F920FB60F9211242F933F934F9311
S11308805F936F937F938F939F93AF93BF93EF93F4
S1130890FF9380910001909101018D5B9F4F0E9415
S11308A05A0381110BC080910001909101018D5B6D
S11308B09F4F0E947E038093C60005C0E1ECF0E0E8
S11308C080818F7D8083FF91EF91BF91AF919F9144
S11308D08F917F916F915F914F913F912F910F90E5
S11308E00FBE0F901F901895DB018F939F930E946A
S11308F0C504BF91AF91A29F800D911DA39F900D40
S1130900B29F900D11240895A1E21A2EAA1BBB1BBD
S1130910FD010DC0AA1FBB1FEE1FFF1FA217B307C7
S1130920E407F50720F0A21BB30BE40BF50B661FDD
S1130930771F881F991F1A9469F7609570958095A1
S113094090959B01AC01BD01CF010895052E97FB45
S11309501EF400940E94BD0457FD07D00E94840435
S113096007FC03D04EF40C94BD045095409530958B
S113097021953F4F4F4F5F4F089590958095709507
S113098061957F4F8F4F9F4F08950E94D804A59F74
S1130990900DB49F900DA49F800D911D1124089576
S11309A0B7FF0C94C5040E94C504821B930B0895E1
S11309B0A29FB001B39FC001A39F700D811D11249C
S11309C0911DB29F700D811D1124911D0895AEE0FB
S11309D0B0E0EDEEF4E00C94A8070D891E8986E0E2
S11309E08C831A8309838FEF9FE79E838D83AE01E7
S11309F0475E5F4F6F89788DCE0101960E9409058D
S1130A00EF81F885E00FF11F10822E96E4E00C943C
S1130A10C407ABE0B0E0EFE0F5E00C949A076C019A
S1130A207B018A01FC0117821682838181FFCCC17C
S1130A30CE0101963C01F6019381F70193FD859166
S1130A4093FF81917F01882309F4BAC1853239F477
S1130A5093FD859193FF81917F01853229F4B6013D
S1130A6090E00E940007E7CF912C212C312CFFE16C
S1130A70F315D8F08B3279F038F4803279F0833280
S1130A80A1F4232D20611DC08D3261F0803369F4FF
S1130A90232D216016C0832D8260382EE32DE4605F
S1130AA03E2E2AC0F32DF8601DC037FC2DC020ED6A
S1130AB0280F2A3040F08E32B9F436FC81C1232D40
S1130AC02064322E19C036FE06C08AE0989E200D9E
S1130AD01124922E11C0EAE02E9E200D1124222E04
S1130AE0F32DF0623F2E08C08C3621F4832D8068EC
S1130AF0382E02C0883641F4F70193FD859193FFA7
S1130B0081917F018111B3CF982F9F7D95549330AC
S1130B1028F40C5F1F4F9FE399830DC0833631F097
S1130B20833771F0833509F059C021C0F801808101
S1130B3089830E5F1F4F88248394912C530113C023
S1130B402801F2E04F0E511CF801A080B18036FE5E
S1130B5003C0692D70E002C06FEF7FEFC5010E94F2
S1130B60F5064C018201F32DFF773F2E16C02801B4
S1130B7022E0420E511CF801A080B18036FE03C071
S1130B80692D70E002C06FEF7FEFC5010E94EA0695
S1130B904C01F32DF0683F2E820133FC1BC0822DE3
S1130BA090E088169906B0F4B60180E290E00E94C5
S1130BB000072A94F4CFF50137FC859137FE819123
S1130BC05F01B60190E00E94000721102A9421E001
S1130BD0821A91088114910471F7E8C0843611F0E7
S1130BE0893641F5F80137FE07C060817181828141
S1130BF093810C5F1F4F08C060817181072E000C28
S1130C00880B990B0E5F1F4FF32DFF763F2E97FF36
S1130C1009C090958095709561957F4F8F4F9F4F38
S1130C20F0683F2E2AE030E0A3010E943C07882EA2
S1130C30861845C0853731F4232D2F7EB22E2AE045
S1130C4030E025C0932D997FB92E8F36C1F018F46A
S1130C50883579F0B5C0803719F0883721F0B0C0F5
S1130C60E92FE061BE2EB4FE0DC0FB2DF460BF2E53
S1130C7009C034FE0AC0292F2660B22E06C028E01F
S1130C8030E005C020E130E002C020E132E0F801AC
S1130C90B7FE07C060817181828193810C5F1F4F11
S1130CA006C06081718180E090E00E5F1F4FA30158
S1130CB00E943C07882E8618FB2DFF773F2E36FEB8
S1130CC00DC0232D2E7FA22E891458F434FE0BC0A0
S1130CD032FC09C0832D8E7EA82E05C0B82CA32C0F
S1130CE003C0B82C01C0B92CA4FE0FC0FE01E80D4E
S1130CF0F11D8081803321F49A2D997EA92E09C09B
S1130D00A2FE06C0B394B39404C08A2D867809F079
S1130D10B394A3FC11C0A0FE06C0B21488F4280C3E
S1130D20922C9B180EC0B21460F4B60180E290E0DD
S1130D300E940007B394F7CFB21418F42B1802C022
S1130D40982C212CA4FE10C0B60180E390E00E94F0
S1130D500007A2FE17C0A1FC03C088E790E002C010
S1130D6088E590E0B6010CC08A2D867859F0A1FE82
S1130D7002C08BE201C080E2A7FC8DE2B60190E0E4
S1130D800E940007891438F4B60180E390E00E94C1
S1130D9000079A94F7CF8A94F301E80DF11D80813E
S1130DA0B60190E00E9400078110F5CF222009F4DB
S1130DB042CEB60180E290E00E9400072A94F6CF6A
S1130DC0F6018681978102C08FEF9FEF2B96E2E1B7
S1130DD00C94B607FC010590615070400110D8F7DF
S1130DE0809590958E0F9F1F0895FC01615070406F
S1130DF001900110D8F7809590958E0F9F1F08954C
S1130E000F931F93CF93DF93FB01238121FD03C035
S1130E108FEF9FEF2CC022FF16C04681578124819B
S1130E2035814217530744F4A081B1819D012F5F9E
S1130E303F4F318320838C93268137812F5F3F4F2F
S1130E403783268314C08B01EC01FB010084F185F8
S1130E50E02D0995892BE1F6D80116968D919C9188
S1130E601797019617969C938E931697CE01DF9150
S1130E70CF911F910F910895FA01AA27283051F1BB
S1130E80203181F1E8946F936E7F6E5F7F4F8F4FB7
S1130E909F4FAF4FB1E03ED0B4E03CD0670F781F16
S1130EA0891F9A1FA11D680F791F8A1F911DA11DFB
S1130EB06A0F711D811D911DA11D20D009F4689434
S1130EC03F912AE0269F11243019305D3193DEF6DC
S1130ED0CF010895462F4770405D4193B3E00FD092
S1130EE0C9F7F6CF462F4F70405D4A3318F0495D7D
S1130EF031FD4052419302D0A9F7EACFB4E0A69560
S1130F009795879577956795BA95C9F70097610581
S1130F10710508959B01AC010A2E069457954795D7
S1130F2037952795BA95C9F7620F731F841F951FCC
S1130F30A01D08952F923F924F925F926F927F92DD
S1130F408F929F92AF92BF92CF92DF92EF92FF92D5
S1130F500F931F93CF93DF93CDB7DEB7CA1BDB0B81
S1130F600FB6F894DEBF0FBECDBF09942A88398826
S1130F7048885F846E847D848C849B84AA84B9842D
S1130F80C884DF80EE80FD800C811B81AA81B98139
S1130F90CE0FD11D0FB6F894DEBF0FBECDBFED014D
S1090FA00895F894FFCF50
S1130FA67A047374617475733D20002564000A0025
S9030000FC
