S01700004763634170706C69636174696F6E312E737265635B
S11300000C9434000C9451000C9451000C94510045
S11300100C9451000C9451000C9451000C94510018
S11300200C9451000C9451000C9451000C94510008
S11300300C9451000C9451000C94ED010C9451005B
S11300400C9451000C9451000C9451000C945100E8
S11300500C9451000C9451000C9451000C945100D8
S11300600C9451000C94510011241FBECFEFD8E022
S1130070DEBFCDBF11E0A0E0B1E0E6E2F7E002C0F0
S113008005900D92A030B107D9F721E0A0E0B1E0CE
S113009001C01D92A231B207E1F70E9459000C94ED
S11300A091030C9400000E9467000E94DF01789481
S11300B008950E94530020E233E048EC50E06CEBDA
S11300C072E080ED97E00E94B7000000F4CF87B1A2
S11300D08C6087B90895CF92DF92EF92FF920F93CD
S11300E01F936B017C0180E090E0A0E0B0E440E06D
S11300F050E0BA018A019B01080F191F2A1F3B1FF8
S1130100C016D106E206F30630F0C01AD10AE20A9C
S1130110F30A21E001C020E076956795579547954D
S1130120222321F0480F591F6A1F7B1FB695A795FC
S113013097958795B695A795979587950097A10567
S1130140B105C1F64C155D056E057F0538F4CB018C
S1130150BA016F5F7F4F8F4F9F4F02C0CB01BA012F
S11301601F910F91FF90EF90DF90CF9008952F9201
S11301703F926F927F928F929F92AF92BF92CF9253
S1130180DF92EF92FF920F931F93CF93DF93CDB73C
S1130190DEB728970FB6F894DEBF0FBECDBF8C0133
S11301A01B013A0199234CF4E7E0F1E08081886077
S11301B0808311950195110905C0E7E0F1E0808184
S11301C0877F808301301105C9F4E7E0F1E08FEF08
S11301D09FEF928781878081887F8260808388EE09
S11301E093E0928381838091000181608093000178
S11301F08AE087BD85B5826085BDCAC00115110539
S113020009F4C6C06901E12CF12C6FE17BE08BE0BD
S113021090E0A70196010E94500349015A013093CE
S11302200F0120930E01C101A0E0B0E089839A83FD
S1130230AB83BC8360EA7FEA89EB92E129813A814E
S11302404B815C810E945003CA01B9010E946B007A
S11302509B01AC01AAE2BCE00E947E0324E630E0EC
S113026040E050E00E942E033E832D833093090129
S113027020930801A7019601C701B6010E941E033D
S11302806B017C01AAE3B1E029813A814B815C8155
S11302900E947E0324E630E040E050E00E945003D8
S11302A0C701B6010E94500338872F83D901AB2BB5
S11302B021F481E090E098878F836301E12CF12C95
S11302C0D801A70196010E9489039101260D371DCB
S11302D040E050E00E9450032115310511F421E063
S11302E030E0AF81B885A217B30738F0201B310B7B
S11302F030930D0120930C0117C0AF81B88529817B
S11303003A814B815C810E947E0390958095709523
S113031061957F4F8F4F9F4FA70196010E94500315
S113032030930D0120930C0180910C0190910D01EB
S1130330892B31F48FEF9FEF90930D0180930C0183
S1130340E7E0F1E085819681080F191F1483038388
S11303508D819E818816990638F0928281828081EF
S1130360887F8360808306C0E7E0F1E08081887F36
S1130370816080831092110110921001809100011C
S11303808160809300018AE087BD85B5826085BD68
S113039028960FB6F894DEBF0FBECDBFDF91CF9184
S11303A01F910F91FF90EF90DF90CF90BF90AF908F
S11303B09F908F907F906F903F902F900895E7E0EB
S11303C0F1E08081887F808384B5826084BDEEE61D
S11303D0F0E080818260808308951F920F920FB6AF
S11303E00F921124EF92FF920F931F932F933F9339
S11303F04F935F936F937F938F939F93AF93BF9329
S1130400CF93DF93EF93FF93E7E0F1E0418147BDA2
S113041048B1508153FB882780F990E0880F991FD9
S1130420880F991F880F991F842B88B98081877042
S11304308130C9F038F0823009F4A2C0833009F465
S11304407BC0E1C0109206011092050110920401D4
S11304501092030185B5887F85BD809100018E7F50
S113046080930001D0C098B184E0892788B90091B5
S11304700501109106010F5F1F4F109306010093B1
S113048005010F2EF7E0EF2EF1E0FF2EF02DF7011E
S1130490218532852F5F3F4F32872187C181D281E9
S11304A0CE01A0E0B0E0880F991FAA1FBB1F4091A6
S11304B0030150910401BC01CD01640F751F811D1E
S11304C0911D220F331F220F331F2F5F3F4F032E27
S11304D0000C440B550B0E945003FE01E21BF30B6E
S11304E09F017093040160930301F7018381948158
S11304F00817190748F08581968192878187808142
S1130500887F826080837FC040910E0150910F01EB
S11305104217530708F477C0309302012093010176
S11305201092040110920301E7E0F1E08081887FDA
S1130530836080839A0167C098B184E0892788B971
S11305408091050190910601019690930601809394
S11305500501E7E0F1E02781308543815481841768
S1130560950708F450C085819681928781872091F0
S11305700101309102018081887F8260808343C0C1
S113058098B184E0892788B980910501909106018A
S113059001969093060180930501E7E0F1E0C1859F
S11305A0D2852196D287C18701811281C801A0E03A
S11305B0B0E0880F991FAA1FBB1F2091030130913F
S11305C00401BC01CD01620F731F811D911D9E01A9
S11305D0220F331F220F331F2F5F3F4F032E000CB8
S11305E0440B550B0E945003F801E21BF30B9F01CF
S11305F07093040160930301DD232CF0E7E0F1E044
S11306008081887F80833093090120930801FF91C2
S1130610EF91DF91CF91BF91AF919F918F917F9196
S11306206F915F914F913F912F911F910F91FF9087
S1130630EF900F900FBE0F901F901895DB018F93D2
S11306409F930E947E03BF91AF91A29F800D911D45
S1130650A39F900DB29F900D11240895A1E21A2E2C
S1130660AA1BBB1BFD010DC0AA1FBB1FEE1FFF1F52
S1130670A217B307E407F50720F0A21BB30BE40BA2
S1130680F50B661F771F881F991F1A9469F76095E9
S11306907095809590959B01AC01BD01CF010895A3
S11306A0052E97FB1EF400940E94670357FD07D0A4
S11306B00E942E0307FC03D04EF40C94670350955C
S11306C04095309521953F4F4F4F5F4F089590953A
S11306D08095709561957F4F8F4F9F4F0895A29F8E
S11306E0B001B39FC001A39F700D811D1124911D02
S11306F0B29F700D811D1124911D08950E946F03F6
S1130700A59F900DB49F900DA49F800D911D112461
S11307100895B7FF0C947E030E947E03821B930B03
S10907200895F894FFCFD8
S9030000FC
