:100000000C9434000C9446000C9446000C9446006A
:100010000C9446000C9446000C9446000C94460048
:100020000C9446000C9446000C9446000C9442023A
:100030000C9446000C9446000C9446000C94460028
:100040000C9446000C9446000C9446000C94460018
:100050000C9446000C9446000C9446000C94460008
:100060000C9446000C94460011241FBECFEFD8E03C
:10007000DEBFCDBF21E0A0E0B1E001C01D92A831FC
:10008000B207E1F70E9455000C94C2050C940000E1
:10009000CF93DF93CDB7DEB70E947C000E942B0286
:1000A00078940000DF91CF910895CF93DF93CDB77F
:1000B000DEB728970FB6F894DEBF0FBECDBF80E144
:1000C00097E29A8389838CED95E09C838B838CEDFA
:1000D00095E09E838D8388E99AE398878F830E94B9
:1000E00048002F8138854D815E816B817C818981BB
:1000F0009A810E948D00FFCFCF93DF93CDB7DEB7FB
:1001000087E290E027E230E0F90120812C60FC01D9
:1001100020830000DF91CF910895EF92FF920F931B
:100120001F93CF93DF93CDB7DEB72C970FB6F8941C
:10013000DEBF0FBECDBF9E838D8378876F835A87C6
:1001400049873C872B878D819E8199236CF4809110
:100150000D01886080930D018D819E81919581951F
:1001600091099E838D8305C080910D01877F8093C7
:100170000D018D819E81019741F58FEF9FEF909347
:1001800017018093160180910D01887F8260809312
:100190000D0188EE93E090930F0180930E01809102
:1001A000000181608093000188E890E02AE030E05F
:1001B000FC013183208381E890E021E830E0F901FF
:1001C00020812260FC01208338C18D819E81892B92
:1001D00009F433C18B859C859C0140E050E086ED9D
:1001E0009FEEAFE2B0E0BC01CD010E948905DA01CB
:1001F000C90190931501809314018F8198859C010A
:1002000040E050E080E49FE5A3E7B5E2BC01CD010A
:100210000E948905DA01C901BC01CD010E94D20406
:100220009B01AC0188E69AE1DC010E94A805DC0193
:10023000CB0124E630E040E050E0BC01CD010E945B
:100240006705DA01C90190930F0180930E018B8538
:100250009C859C0140E050E08B859C85CC01A0E012
:10026000B0E0BC01CD010E9457057B018C018F815C
:1002700098859C0140E050E084E792E0DC010E9418
:10028000A805DC01CB0124E630E040E050E0BC01F1
:10029000CD010E948905DA01C9019C01AD01C801A7
:1002A000B7010E948905DA01C9019A83898389818E
:1002B0009A81892B21F481E090E09A8389838D8152
:1002C0009E819C01990F440B550B89859A85CC0121
:1002D000A0E0B0E0BC01CD010E9457057B018C017C
:1002E0002F81388589859A85820F931F9C0140E074
:1002F00050E0C801B7010E948905DA01C9019C8359
:100300008B838B819C81892B21F481E090E09C83FD
:100310008B832B813C8189819A818217930768F0B6
:100320008D819E812B813C81A901481B590BCA01FB
:10033000909313018093120126C089819A819C01B8
:1003400040E050E08F819885CC01A0E0B0E0BC0196
:10035000CD010E945705DC01CB01B095A095909589
:1003600081959F4FAF4FBF4F29853A85990140E056
:1003700050E0BC01CD010E948905DA01C9019093CA
:100380001301809312018091120190911301892B26
:1003900031F48FEF9FEF909313018093120120911E
:1003A0001201309113018D819E81820F931F9093D2
:1003B00011018093100180910E0190910F01209105
:1003C0001401309115012817390778F08091140134
:1003D0009091150190930F0180930E0180910D0172
:1003E000887F836080930D0106C080910D01887F16
:1003F000816080930D011092170110921601809177
:10040000000181608093000188E890E02AE030E0FC
:10041000FC013183208381E890E021E830E0F9019C
:100420002081287FFC01208381E890E021E830E0F2
:10043000F90120812260FC01208300002C960FB678
:10044000F894DEBF0FBECDBFDF91CF911F910F910A
:10045000FF90EF900895CF93DF93CDB7DEB78091F3
:100460000D01887F80930D0181E890E028E0FC0178
:1004700020838FE690E022E0FC0120830000DF91E2
:10048000CF9108951F920F9200905F000F92112458
:10049000EF92FF920F931F932F933F934F935F938E
:1004A0006F937F938F939F93AF93BF93EF93FF933C
:1004B000CF93DF9300D000D0CDB7DEB788E890E0CF
:1004C00020910E0130910F01FC013183208388E2DD
:1004D00090E028E230E0F9012081422F20910D01C7
:1004E00023FB222720F9222F30E0220F331F220F77
:1004F000331F220F331F242BFC01208380910D0119
:100500008770882F90E08130910569F182309105E4
:100510001CF4892B49F023C28230910509F473C180
:10052000039709F417C11BC2109201011092020136
:10053000109203011092040110920501109206011D
:10054000109207011092080181E890E021E830E064
:10055000F9012081287FFC012083809100018E7F9A
:1005600080930001FCC188E290E028E230E0F901CC
:10057000308124E02327FC012083809101019091A8
:100580000201A0910301B09104010196A11DB11DCA
:100590008093010190930201A0930301B0930401A1
:1005A0008091160190911701019690931701809305
:1005B000160180910E0190910F017C0100E010E086
:1005C00080910E0190910F01CC01A0E0B0E0880F66
:1005D000991FAA1FBB1F9C01AD018091050190913D
:1005E0000601A0910701B0910801820F931FA41F7B
:1005F000B51F2091160130911701220F331F220FD2
:10060000331F2F5F3F4F032E000C440B550BBC01D3
:10061000CD010E946705DA01C901A8019701281BD5
:10062000390B4A0B5B0BDA01C90189839A83AB83CF
:10063000BC8380910E0190910F01CC01A0E0B0E04D
:10064000880F991FAA1FBB1F9C01AD018091050156
:1006500090910601A0910701B0910801820F931FAC
:10066000A41FB51F2091160130911701220F331FCF
:10067000220F331F2F5F3F4F032E000C440B550BEF
:10068000BC01CD010E946705DC01CB01809305010F
:1006900090930601A0930701B09308018091100187
:1006A000909111019C0140E050E0809101019091F6
:1006B0000201A0910301B091040182179307A407DE
:1006C000B50778F080911201909113019093170172
:1006D0008093160180910D01887F826080930D01C7
:1006E00039C180911401909115019C01990F440B1F
:1006F000550B89819A81AB81BC81281739074A073C
:100700005B0708F427C189819A81AB81BC81809302
:10071000090190930A01A0930B01B0930C01809101
:10072000140190911501092E000CAA0BBB0B8983B3
:100730009A83AB83BC83109205011092060110923C
:1007400007011092080180910D01887F83608093DA
:100750000D0100C188E290E028E230E0F90130812B
:1007600024E02327FC012083809101019091020164
:10077000A0910301B09104010196A11DB11D8093C8
:10078000010190930201A0930301B09304018091B1
:10079000140190911501092E000CAA0BBB0B898343
:1007A0009A83AB83BC8380911001909111019C01CD
:1007B00040E050E08091010190910201A09103017D
:1007C000B091040182179307A407B50708F4C4C0C9
:1007D000809112019091130190931701809316015B
:1007E0008091090190910A01A0910B01B0910C0137
:1007F00089839A83AB83BC8380910D01887F82605B
:1008000080930D01A9C088E290E028E230E0F90170
:10081000308124E02327FC01208380910101909105
:100820000201A0910301B09104010196A11DB11D27
:100830008093010190930201A0930301B0930401FE
:100840008091160190911701019690931701809362
:10085000160180910E0190910F017C0100E010E0E3
:1008600080910E0190910F01CC01A0E0B0E0880FC3
:10087000991FAA1FBB1F9C01AD018091050190919A
:100880000601A0910701B0910801820F931FA41FD8
:10089000B51F2091160130911701220F331F220F2F
:1008A000331F2F5F3F4F032E000C440B550BBC0131
:1008B000CD010E946705DA01C901A8019701281B33
:1008C000390B4A0B5B0BDA01C90189839A83AB832D
:1008D000BC8380910E0190910F01CC01A0E0B0E0AB
:1008E000880F991FAA1FBB1F9C01AD0180910501B4
:1008F00090910601A0910701B0910801820F931F0A
:10090000A41FB51F2091160130911701220F331F2C
:10091000220F331F2F5F3F4F032E000C440B550B4C
:10092000BC01CD010E946705DC01CB01809305016C
:1009300090930601A0930701B093080180911601DE
:1009400090911701992354F080910D01887F809335
:100950000D0104C0000003C0000001C00000898137
:100960009A8190930F0180930E0100000F900F90D9
:100970000F900F90DF91CF91FF91EF91BF91AF91C9
:100980009F918F917F916F915F914F913F912F91A7
:100990001F910F91FF90EF900F9000925F000F90CA
:1009A0001F9018956F927F928F929F92AF92BF92F5
:1009B000CF92DF92EF92FF920F931F93CF93DF932B
:1009C00000D000D0CDB7DEB769837A838B839C8358
:1009D000E12CF12C8701A12CB12C65016894D6F88B
:1009E000A80197012A0D3B1D4C1D5D1D89819A812F
:1009F000AB81BC8182179307A407B507C8F0D80163
:100A0000C7018A0D9B1DAC1DBD1D29813A814B81FB
:100A10005C8139014A01681A790A8A0A9B0AD40161
:100A2000C30189839A83AB83BC839924939401C0C7
:100A3000912C16950795F794E794992021F0EA0CEC
:100A4000FB1C0C1D1D1DD694C794B794A794D69477
:100A5000C794B794A794A114B104C104D10409F0B8
:100A6000BFCF89819A81AB81BC81E816F9060A075C
:100A70001B0730F4D801C7010196A11DB11D02C0AA
:100A8000D801C701BC01CD010F900F900F900F90BE
:100A9000DF91CF911F910F91FF90EF90DF90CF905A
:100AA000BF90AF909F908F907F906F900895DB01E3
:100AB0008F939F930E94A805BF91AF91A29F800D35
:100AC000911DA39F900DB29F900D11240895A1E256
:100AD0001A2EAA1BBB1BFD010DC0AA1FBB1FEE1FB8
:100AE000FF1FA217B307E407F50720F0A21BB30B03
:100AF000E40BF50B661F771F881F991F1A9469F77F
:100B000060957095809590959B01AC01BD01CF01DA
:100B10000895052E97FB1EF400940E94A00557FD32
:100B200007D00E94670507FC03D04EF40C94A00583
:100B300050954095309521953F4F4F4F5F4F089509
:100B400090958095709561957F4F8F4F9F4F089539
:100B50000E94B305A59F900DB49F900DA49F800D9A
:100B6000911D11240895A29FB001B39FC001A39FBE
:100B7000700D811D1124911DB29F700D811D1124D6
:080B8000911D0895F894FFCFC8
:00000001FF
