S01700004763634170706C69636174696F6E312E737265635B
S11300000C9434000C9451000C9451000C94510045
S11300100C9451000C9451000C9451000C94510018
S11300200C9451000C9451000C9451000C94460211
S11300300C9451000C9451000C9451000C945100F8
S11300400C9451000C9451000C943B060C94A4069F
S11300500C9451000C9451000C9451000C945100D8
S11300600C9451000C94510011241FBECFEFD8E022
S1130070DEBFCDBF11E0A0E0B1E0E6ECFEE002C0DF
S113008005900D92A230B107D9F727E0A2E0B1E0C4
S113009001C01D92A432B207E1F70E9462000C94E1
S11300A061070C940000CF93DF93CDB7DEB70E94B5
S11300B089000E942F020E94F70578940000DF91C6
S11300C0CF910895CF93DF93CDB7DEB728970FB6BE
S11300D0F894DEBF0FBECDBF88EC90E09A8389838D
S11300E082E390E09C838B8382E390E09E838D8304
S11300F084E690E098878F830E9453002F8138858F
S11301004D815E816B817C8189819A810E949A00F4
S1130110F5CFCF93DF93CDB7DEB787E290E027E248
S113012030E0F90120812C60FC0120830000DF9184
S1130130CF910895EF92FF920F931F93CF93DF9384
S1130140CDB7DEB72C970FB6F894DEBF0FBECDBF88
S11301509E838D8378876F835A8749873C872B8753
S11301608D819E8199236CF4809109068860809327
S113017009068D819E819195819591099E838D8338
S113018005C080910906877F809309068D819E8131
S1130190019741F58FEF9FEF90931306809312061A
S11301A080910906887F82608093090688EE93E037
S11301B090930B0680930A068091020181608093DC
S11301C0020188E890E02AE030E0FC0131832083DA
S11301D081E890E021E830E0F90120812260FC010F
S11301E020832FC18D819E81892B09F42AC18B859F
S11301F09C859C0140E050E086ED9FEEAFE2B0E0CC
S1130200BC01CD010E942807DA01C90190931106AF
S1130210809310068F8198859C0140E050E080E433
S11302209FE5A3E7B5E2BC01CD010E942807DA01EE
S1130230C901BC01CD010E9456049B01AC0188E6B2
S11302409AE1DC010E944707DC01CB0124E630E09F
S113025040E050E0BC01CD010E940607DA01C9016B
S113026090930B0680930A068B859C859C0140E045
S113027050E08B859C85CC01A0E0B0E0BC01CD01B1
S11302800E94F6067B018C018F8198859C0140E0D9
S113029050E084E792E0DC010E944707DC01CB01D7
S11302A024E630E040E050E0BC01CD010E94280784
S11302B0DA01C9019C01AD01C801B7010E942807F8
S11302C0DA01C9019A83898389819A81892B21F46E
S11302D081E090E09A8389838D819E819C01990FAE
S11302E0440B550B89859A85CC01A0E0B0E0BC0194
S11302F0CD010E94F6067B018C012F81388589850A
S11303009A85820F931F9C0140E050E0C801B70119
S11303100E942807DA01C9019C838B838B819C810D
S1130320892B21F481E090E09C838B832B813C8199
S113033089819A818217930768F08D819E812B8130
S11303403C81A901481B590BCA0190930F06809365
S11303500E0626C089819A819C0140E050E08F817D
S11303609885CC01A0E0B0E0BC01CD010E94F60666
S1130370DC01CB01B095A095909581959F4FAF4F2F
S1130380BF4F29853A85990140E050E0BC01CD0179
S11303900E942807DA01C90190930F0680930E0684
S11303A080910E0690910F06892B31F48FEF9FEF09
S11303B090930F0680930E0620910E0630910F063F
S11303C08D819E81820F931F90930D0680930C065E
S11303D080910A0690910B06209110063091110627
S11303E02817390778F080911006909111069093A0
S11303F00B0680930A0680910906887F83608093A8
S1130400090606C080910906887F816080930906E9
S1130410109213061092120680910201816080935B
S1130420020188E890E02AE030E0FC013183208377
S113043081E890E021E830E0F90120812260FC01AC
S1130440208300002C960FB6F894DEBF0FBECDBFFC
S1130450DF91CF911F910F91FF90EF900895CF936B
S1130460DF93CDB7DEB780910906887F80930906B4
S113047081E890E028E0FC0120838FE690E022E010
S1130480FC0120830000DF91CF9108951F920F9209
S113049000905F000F9211240F931F932F933F93AB
S11304A04F935F936F937F938F939F93AF93BF9378
S11304B0EF93FF93CF93DF9300D0CDB7DEB788E8F7
S11304C090E020910A0630910B06FC0131832083D1
S11304D088E290E028E230E0F9012081422F209167
S11304E0090623FB222720F9222F30E0220F331F95
S11304F0220F331F220F331F242BFC0120838091F2
S113050009068770882F90E08130910529F18230A7
S113051091051CF4892B49F0AAC18230910509F494
S113052013C1039709F4D6C0A2C11092040110921A
S11305300301109206011092050181E890E021E880
S113054030E0F9012081287FFC01208380910201A1
S11305508E7F809302018BC188E290E028E230E034
S1130560F901308124E02327FC01208380910301D9
S1130570909104010196909304018093030180916A
S11305801206909113060196909313068093120617
S113059000910A0610910B0680910A0690910B06B1
S11305A0CC01A0E0B0E09C01AD01220F331F441F39
S11305B0551F8091050190910601CC01A0E0B0E0A7
S11305C0820F931FA41FB51F2091120630911306AA
S11305D0220F331F220F331F2F5F3F4F032E000CB8
S11305E0440B550BBC01CD010E942807DA01C90157
S11305F09801281B390BC9019A83898380910A06C3
S113060090910B06CC01A0E0B0E09C01AD01220F5B
S1130610331F441F551F8091050190910601CC01A1
S1130620A0E0B0E0820F931FA41FB51F2091120613
S113063030911306220F331F220F331F2F5F3F4FBA
S1130640032E000C440B550BBC01CD010E9428075E
S1130650DC01CB01909306018093050120910C06E7
S113066030910D0680910301909104018217930744
S113067078F080910E0690910F0690931306809364
S1130680120680910906887F826080930906EAC079
S113069080911006909111069C0189819A812817F6
S11306A0390708F4DFC089819A8190930801809307
S11306B0070180911006909111069A838983109204
S11306C006011092050180910906887F836080935A
S11306D00906C8C088E290E028E230E0F9013081E0
S11306E024E02327FC0120838091030190910401DD
S11306F001969093040180930301809110069091D8
S113070011069A83898320910C0630910D068091FD
S11307100301909104018217930708F4A5C0809106
S11307200E0690910F069093130680931206809103
S11307300701909108019A83898380910906887F33
S113074082608093090690C088E290E028E230E05D
S1130750F901308124E02327FC01208380910301E7
S11307609091040101969093040180930301809178
S11307701206909113060196909313068093120625
S113078000910A0610910B0680910A0690910B06BF
S1130790CC01A0E0B0E09C01AD01220F331F441F47
S11307A0551F8091050190910601CC01A0E0B0E0B5
S11307B0820F931FA41FB51F2091120630911306B8
S11307C0220F331F220F331F2F5F3F4F032E000CC6
S11307D0440B550BBC01CD010E942807DA01C90165
S11307E09801281B390BC9019A83898380910A06D1
S11307F090910B06CC01A0E0B0E09C01AD01220F6A
S1130800331F441F551F8091050190910601CC01AF
S1130810A0E0B0E0820F931FA41FB51F2091120621
S113082030911306220F331F220F331F2F5F3F4FC8
S1130830032E000C440B550BBC01CD010E9428076C
S1130840DC01CB019093060180930501809112068F
S113085090911306992354F080910906887F809320
S1130860090604C0000003C0000001C00000898123
S11308709A8190930B0680930A0600000F900F90C4
S1130880DF91CF91FF91EF91BF91AF919F918F91A4
S11308907F916F915F914F913F912F911F910F9194
S11308A00F9000925F000F901F9018956F927F92A7
S11308B08F929F92AF92BF92CF92DF92EF92FF926C
S11308C00F931F93CF93DF9300D000D0CDB7DEB743
S11308D069837A838B839C83E12CF12C8701A12C7F
S11308E0B12C65016894D6F8A80197012A0D3B1D27
S11308F04C1D5D1D89819A81AB81BC818217930750
S1130900A407B507C8F0D801C7018A0D9B1DAC1D0B
S1130910BD1D29813A814B815C8139014A01681AE4
S1130920790A8A0A9B0AD401C30189839A83AB8317
S1130930BC839924939401C0912C16950795F79440
S1130940E794992021F0EA0CFB1C0C1D1D1DD69484
S1130950C794B794A794D694C794B794A794A114B2
S1130960B104C104D10409F0BFCF89819A81AB815C
S1130970BC81E816F9060A071B0730F4D801C70141
S11309800196A11DB11D02C0D801C701BC01CD0152
S11309900F900F900F900F90DF91CF911F910F91B7
S11309A0FF90EF90DF90CF90BF90AF909F908F908B
S11309B07F906F900895CF93DF93CDB7DEB7F8940F
S11309C081E0DF91CF910895CF93DF9300D0CDB72D
S11309D0DEB79A8389838FE590E029813A81F90112
S11309E02081FC01208300000F900F90DF91CF91B4
S11309F00895CF93DF9300D000D0CDB7DEB79C83AA
S1130A008B838FE590E0FC0180818A830E94DB0464
S1130A10898313C08B819C81805C9F4FFC01108271
S1130A208B819C818F5B9F4FFC0110828B819C8109
S1130A308E5B9F4FFC01108219828981882351F7B4
S1130A40CE0102960E94E40400000F900F900F90D4
S1130A500F90DF91CF910895CF93DF9300D0CDB75E
S1130A60DEB79A83898389819A818E5B9F4FFC01CB
S1130A70908181E0903409F080E00F900F90DF9135
S1130A80CF910895CF93DF9300D0CDB7DEB79A838B
S1130A90898389819A818E5B9F4FFC01908181E0DB
S1130AA0992309F080E00F900F90DF91CF91089582
S1130AB0CF93DF9300D000D01F92CDB7DEB78B83E6
S1130AC07D836C832C813D818C819D81805C9F4FD3
S1130AD0FC018081882F90E0820F931F2B81FC0101
S1130AE020838FE590E0FC0180818A830E94DB04EF
S1130AF089831EC08C819D81805C9F4FFC01808115
S1130B008F5F282F2F738C819D81805C9F4FFC0108
S1130B1020838C819D818E5B9F4FFC01808121E02D
S1130B20280F8C819D818E5B9F4FFC01208319824D
S1130B3089818823F9F6CE0102960E94E40400001C
S1130B400F900F900F900F900F90DF91CF91089519
S1130B50CF93DF9300D000D01F92CDB7DEB79D8333
S1130B608C832C813D818C819D818F5B9F4FFC0107
S1130B708081882F90E0820F931FFC0180818A83FB
S1130B808FE590E0FC0180818B830E94DB048983E4
S1130B901EC08C819D818F5B9F4FFC0180818F5F84
S1130BA0282F2F738C819D818F5B9F4FFC012083A5
S1130BB08C819D818E5B9F4FFC0180812FEF280FDC
S1130BC08C819D818E5B9F4FFC01208319828981DA
S1130BD08823F9F6CE0103960E94E4048A810F90DB
S1130BE00F900F900F900F90DF91CF910895CF93B6
S1130BF0DF93CDB7DEB78AE290E02AE230E0F90174
S1130C0020812D7FFC0120838BE290E02BE230E0F9
S1130C10F90120812260FC012083809100019091E0
S1130C2001018D5B9F4F0E94F90480910001909116
S1130C3001010E94F90485EC90E0FC01108284EC2F
S1130C4090E023E3FC01208381EC90E021EC30E090
S1130C50F90120812869FC01208382EC90E022ECD8
S1130C6030E0F90120812660FC01208378940000A3
S1130C70DF91CF9108951F920F9200905F000F9221
S1130C8011242F933F934F935F936F937F938F938D
S1130C909F93AF93BF93EF93FF93CF93DF931F92F1
S1130CA0CDB7DEB786EC90E0FC018081898380912A
S1130CB00001909101010E942C05982F81E0892761
S1130CC08823D1F08091000190910101BC018981B8
S1130CD00E945805809100019091010120EC30E0C0
S1130CE0F9012081222F30E02C7133278A579F4F3E
S1130CF0FC013183208312C0809100019091010195
S1130D0020EC30E0F9012081222F30E02C713327D0
S1130D1021608A579F4FFC013183208300000F908C
S1130D20DF91CF91FF91EF91BF91AF919F918F91FF
S1130D307F916F915F914F913F912F910F9000920E
S1130D405F000F901F9018951F920F9200905F0004
S1130D500F9211240F931F932F933F934F935F93FD
S1130D606F937F938F939F93AF93BF93EF93FF936F
S1130D70CF93DF93CDB7DEB780910001909101014D
S1130D808D5B9F4F0E944205982F81E0892788231D
S1130D9069F006EC10E080910001909101018D5BF7
S1130DA09F4F0E94A805F801808309C081EC90E060
S1130DB021EC30E0F90120812F7DFC01208300002B
S1130DC0DF91CF91FF91EF91BF91AF919F918F915F
S1130DD07F916F915F914F913F912F911F910F914F
S1130DE00F9000925F000F901F901895DB018F9376
S1130DF09F930E944707BF91AF91A29F800D911DC1
S1130E00A39F900DB29F900D11240895A1E21A2E74
S1130E10AA1BBB1BFD010DC0AA1FBB1FEE1FFF1F9A
S1130E20A217B307E407F50720F0A21BB30BE40BEA
S1130E30F50B661F771F881F991F1A9469F7609531
S1130E407095809590959B01AC01BD01CF010895EB
S1130E50052E97FB1EF400940E943F0757FD07D010
S1130E600E94060707FC03D04EF40C943F075095EC
S1130E704095309521953F4F4F4F5F4F0895909582
S1130E808095709561957F4F8F4F9F4F08950E9475
S1130E905207A59F900DB49F900DA49F800D911DA6
S1130EA011240895A29FB001B39FC001A39F700DA8
S1130EB0811D1124911DB29F700D811D1124911D5E
S1090EC00895F894FFCF31
S1050EC69C0684
S9030000FC
